{
  "_format": "hh-sol-artifact-1",
  "contractName": "Certificate",
  "sourceName": "contracts/Certificate.sol",
  "abi": [
    {
      "inputs": [],
      "stateMutability": "nonpayable",
      "type": "constructor"
    },
    {
      "anonymous": false,
      "inputs": [
        {
          "indexed": true,
          "internalType": "address",
          "name": "owner",
          "type": "address"
        },
        {
          "indexed": true,
          "internalType": "address",
          "name": "approved",
          "type": "address"
        },
        {
          "indexed": true,
          "internalType": "uint256",
          "name": "tokenId",
          "type": "uint256"
        }
      ],
      "name": "Approval",
      "type": "event"
    },
    {
      "anonymous": false,
      "inputs": [
        {
          "indexed": true,
          "internalType": "address",
          "name": "owner",
          "type": "address"
        },
        {
          "indexed": true,
          "internalType": "address",
          "name": "operator",
          "type": "address"
        },
        {
          "indexed": false,
          "internalType": "bool",
          "name": "approved",
          "type": "bool"
        }
      ],
      "name": "ApprovalForAll",
      "type": "event"
    },
    {
      "anonymous": false,
      "inputs": [
        {
          "indexed": true,
          "internalType": "address",
          "name": "previousOwner",
          "type": "address"
        },
        {
          "indexed": true,
          "internalType": "address",
          "name": "newOwner",
          "type": "address"
        }
      ],
      "name": "OwnershipTransferred",
      "type": "event"
    },
    {
      "anonymous": false,
      "inputs": [
        {
          "indexed": true,
          "internalType": "address",
          "name": "from",
          "type": "address"
        },
        {
          "indexed": true,
          "internalType": "address",
          "name": "to",
          "type": "address"
        },
        {
          "indexed": true,
          "internalType": "uint256",
          "name": "tokenId",
          "type": "uint256"
        }
      ],
      "name": "Transfer",
      "type": "event"
    },
    {
      "inputs": [
        {
          "internalType": "address",
          "name": "to",
          "type": "address"
        },
        {
          "internalType": "uint256",
          "name": "tokenId",
          "type": "uint256"
        }
      ],
      "name": "approve",
      "outputs": [],
      "stateMutability": "nonpayable",
      "type": "function"
    },
    {
      "inputs": [
        {
          "internalType": "address",
          "name": "owner",
          "type": "address"
        }
      ],
      "name": "balanceOf",
      "outputs": [
        {
          "internalType": "uint256",
          "name": "",
          "type": "uint256"
        }
      ],
      "stateMutability": "view",
      "type": "function"
    },
    {
      "inputs": [
        {
          "internalType": "uint256",
          "name": "tokenId",
          "type": "uint256"
        }
      ],
      "name": "burn",
      "outputs": [],
      "stateMutability": "nonpayable",
      "type": "function"
    },
    {
      "inputs": [
        {
          "internalType": "uint256",
          "name": "tokenId",
          "type": "uint256"
        }
      ],
      "name": "getApproved",
      "outputs": [
        {
          "internalType": "address",
          "name": "",
          "type": "address"
        }
      ],
      "stateMutability": "view",
      "type": "function"
    },
    {
      "inputs": [
        {
          "internalType": "address",
          "name": "owner",
          "type": "address"
        },
        {
          "internalType": "address",
          "name": "operator",
          "type": "address"
        }
      ],
      "name": "isApprovedForAll",
      "outputs": [
        {
          "internalType": "bool",
          "name": "",
          "type": "bool"
        }
      ],
      "stateMutability": "view",
      "type": "function"
    },
    {
      "inputs": [],
      "name": "name",
      "outputs": [
        {
          "internalType": "string",
          "name": "",
          "type": "string"
        }
      ],
      "stateMutability": "view",
      "type": "function"
    },
    {
      "inputs": [],
      "name": "owner",
      "outputs": [
        {
          "internalType": "address",
          "name": "",
          "type": "address"
        }
      ],
      "stateMutability": "view",
      "type": "function"
    },
    {
      "inputs": [
        {
          "internalType": "uint256",
          "name": "tokenId",
          "type": "uint256"
        }
      ],
      "name": "ownerOf",
      "outputs": [
        {
          "internalType": "address",
          "name": "",
          "type": "address"
        }
      ],
      "stateMutability": "view",
      "type": "function"
    },
    {
      "inputs": [],
      "name": "renounceOwnership",
      "outputs": [],
      "stateMutability": "nonpayable",
      "type": "function"
    },
    {
      "inputs": [
        {
          "internalType": "address",
          "name": "to",
          "type": "address"
        },
        {
          "internalType": "string",
          "name": "uri",
          "type": "string"
        }
      ],
      "name": "safeMint",
      "outputs": [],
      "stateMutability": "nonpayable",
      "type": "function"
    },
    {
      "inputs": [
        {
          "internalType": "address",
          "name": "from",
          "type": "address"
        },
        {
          "internalType": "address",
          "name": "to",
          "type": "address"
        },
        {
          "internalType": "uint256",
          "name": "tokenId",
          "type": "uint256"
        }
      ],
      "name": "safeTransferFrom",
      "outputs": [],
      "stateMutability": "nonpayable",
      "type": "function"
    },
    {
      "inputs": [
        {
          "internalType": "address",
          "name": "from",
          "type": "address"
        },
        {
          "internalType": "address",
          "name": "to",
          "type": "address"
        },
        {
          "internalType": "uint256",
          "name": "tokenId",
          "type": "uint256"
        },
        {
          "internalType": "bytes",
          "name": "data",
          "type": "bytes"
        }
      ],
      "name": "safeTransferFrom",
      "outputs": [],
      "stateMutability": "nonpayable",
      "type": "function"
    },
    {
      "inputs": [
        {
          "internalType": "address",
          "name": "operator",
          "type": "address"
        },
        {
          "internalType": "bool",
          "name": "approved",
          "type": "bool"
        }
      ],
      "name": "setApprovalForAll",
      "outputs": [],
      "stateMutability": "nonpayable",
      "type": "function"
    },
    {
      "inputs": [
        {
          "internalType": "address",
          "name": "owner",
          "type": "address"
        }
      ],
      "name": "show_balance",
      "outputs": [
        {
          "internalType": "uint256",
          "name": "",
          "type": "uint256"
        }
      ],
      "stateMutability": "view",
      "type": "function"
    },
    {
      "inputs": [
        {
          "internalType": "bytes4",
          "name": "interfaceId",
          "type": "bytes4"
        }
      ],
      "name": "supportsInterface",
      "outputs": [
        {
          "internalType": "bool",
          "name": "",
          "type": "bool"
        }
      ],
      "stateMutability": "view",
      "type": "function"
    },
    {
      "inputs": [],
      "name": "symbol",
      "outputs": [
        {
          "internalType": "string",
          "name": "",
          "type": "string"
        }
      ],
      "stateMutability": "view",
      "type": "function"
    },
    {
      "inputs": [
        {
          "internalType": "uint256",
          "name": "index",
          "type": "uint256"
        }
      ],
      "name": "tokenByIndex",
      "outputs": [
        {
          "internalType": "uint256",
          "name": "",
          "type": "uint256"
        }
      ],
      "stateMutability": "view",
      "type": "function"
    },
    {
      "inputs": [
        {
          "internalType": "address",
          "name": "owner",
          "type": "address"
        },
        {
          "internalType": "uint256",
          "name": "index",
          "type": "uint256"
        }
      ],
      "name": "tokenOfOwnerByIndex",
      "outputs": [
        {
          "internalType": "uint256",
          "name": "",
          "type": "uint256"
        }
      ],
      "stateMutability": "view",
      "type": "function"
    },
    {
      "inputs": [
        {
          "internalType": "uint256",
          "name": "tokenId",
          "type": "uint256"
        }
      ],
      "name": "tokenURI",
      "outputs": [
        {
          "internalType": "string",
          "name": "",
          "type": "string"
        }
      ],
      "stateMutability": "view",
      "type": "function"
    },
    {
      "inputs": [],
      "name": "totalSupply",
      "outputs": [
        {
          "internalType": "uint256",
          "name": "",
          "type": "uint256"
        }
      ],
      "stateMutability": "view",
      "type": "function"
    },
    {
      "inputs": [
        {
          "internalType": "address",
          "name": "from",
          "type": "address"
        },
        {
          "internalType": "address",
          "name": "to",
          "type": "address"
        },
        {
          "internalType": "uint256",
          "name": "tokenId",
          "type": "uint256"
        }
      ],
      "name": "transferFrom",
      "outputs": [],
      "stateMutability": "nonpayable",
      "type": "function"
    },
    {
      "inputs": [
        {
          "internalType": "address",
          "name": "newOwner",
          "type": "address"
        }
      ],
      "name": "transferOwnership",
      "outputs": [],
      "stateMutability": "nonpayable",
      "type": "function"
    },
    {
      "stateMutability": "payable",
      "type": "receive"
    }
  ],
  "bytecode": "0x60806040523480156200001157600080fd5b506040518060400160405280600b81526020017f43657274696669636174650000000000000000000000000000000000000000008152506040518060400160405280600381526020017f43544b000000000000000000000000000000000000000000000000000000000081525081600090816200008f919062000412565b508060019081620000a1919062000412565b505050620000c4620000b8620000ca60201b60201c565b620000d260201b60201c565b620004f9565b600033905090565b6000600b60009054906101000a900473ffffffffffffffffffffffffffffffffffffffff16905081600b60006101000a81548173ffffffffffffffffffffffffffffffffffffffff021916908373ffffffffffffffffffffffffffffffffffffffff1602179055508173ffffffffffffffffffffffffffffffffffffffff168173ffffffffffffffffffffffffffffffffffffffff167f8be0079c531659141344cd1fd0a4f28419497f9722a3daafe3b4186f6b6457e060405160405180910390a35050565b600081519050919050565b7f4e487b7100000000000000000000000000000000000000000000000000000000600052604160045260246000fd5b7f4e487b7100000000000000000000000000000000000000000000000000000000600052602260045260246000fd5b600060028204905060018216806200021a57607f821691505b60208210810362000230576200022f620001d2565b5b50919050565b60008190508160005260206000209050919050565b60006020601f8301049050919050565b600082821b905092915050565b6000600883026200029a7fffffffffffffffffffffffffffffffffffffffffffffffffffffffffffffffff826200025b565b620002a686836200025b565b95508019841693508086168417925050509392505050565b6000819050919050565b6000819050919050565b6000620002f3620002ed620002e784620002be565b620002c8565b620002be565b9050919050565b6000819050919050565b6200030f83620002d2565b620003276200031e82620002fa565b84845462000268565b825550505050565b600090565b6200033e6200032f565b6200034b81848462000304565b505050565b5b8181101562000373576200036760008262000334565b60018101905062000351565b5050565b601f821115620003c2576200038c8162000236565b62000397846200024b565b81016020851015620003a7578190505b620003bf620003b6856200024b565b83018262000350565b50505b505050565b600082821c905092915050565b6000620003e760001984600802620003c7565b1980831691505092915050565b6000620004028383620003d4565b9150826002028217905092915050565b6200041d8262000198565b67ffffffffffffffff811115620004395762000438620001a3565b5b62000445825462000201565b6200045282828562000377565b600060209050601f8311600181146200048a576000841562000475578287015190505b620004818582620003f4565b865550620004f1565b601f1984166200049a8662000236565b60005b82811015620004c4578489015182556001820191506020850194506020810190506200049d565b86831015620004e45784890151620004e0601f891682620003d4565b8355505b6001600288020188555050505b505050505050565b613f1380620005096000396000f3fe6080604052600436106101395760003560e01c806370a08231116100ab578063a2ac09c71161006f578063a2ac09c714610443578063b88d4fde14610480578063c87b56dd146104a9578063d204c45e146104e6578063e985e9c51461050f578063f2fde38b1461054c57610140565b806370a0823114610370578063715018a6146103ad5780638da5cb5b146103c457806395d89b41146103ef578063a22cb4651461041a57610140565b806323b872dd116100fd57806323b872dd1461023e5780632f745c591461026757806342842e0e146102a457806342966c68146102cd5780634f6ccce7146102f65780636352211e1461033357610140565b806301ffc9a71461014557806306fdde0314610182578063081812fc146101ad578063095ea7b3146101ea57806318160ddd1461021357610140565b3661014057005b600080fd5b34801561015157600080fd5b5061016c6004803603810190610167919061290f565b610575565b6040516101799190612957565b60405180910390f35b34801561018e57600080fd5b50610197610587565b6040516101a49190612a02565b60405180910390f35b3480156101b957600080fd5b506101d460048036038101906101cf9190612a5a565b610619565b6040516101e19190612ac8565b60405180910390f35b3480156101f657600080fd5b50610211600480360381019061020c9190612b0f565b61065f565b005b34801561021f57600080fd5b50610228610776565b6040516102359190612b5e565b60405180910390f35b34801561024a57600080fd5b5061026560048036038101906102609190612b79565b610783565b005b34801561027357600080fd5b5061028e60048036038101906102899190612b0f565b6107e3565b60405161029b9190612b5e565b60405180910390f35b3480156102b057600080fd5b506102cb60048036038101906102c69190612b79565b610888565b005b3480156102d957600080fd5b506102f460048036038101906102ef9190612a5a565b6108a8565b005b34801561030257600080fd5b5061031d60048036038101906103189190612a5a565b610904565b60405161032a9190612b5e565b60405180910390f35b34801561033f57600080fd5b5061035a60048036038101906103559190612a5a565b610975565b6040516103679190612ac8565b60405180910390f35b34801561037c57600080fd5b5061039760048036038101906103929190612bcc565b6109fb565b6040516103a49190612b5e565b60405180910390f35b3480156103b957600080fd5b506103c2610ab2565b005b3480156103d057600080fd5b506103d9610ac6565b6040516103e69190612ac8565b60405180910390f35b3480156103fb57600080fd5b50610404610af0565b6040516104119190612a02565b60405180910390f35b34801561042657600080fd5b50610441600480360381019061043c9190612c25565b610b82565b005b34801561044f57600080fd5b5061046a60048036038101906104659190612bcc565b610b98565b6040516104779190612b5e565b60405180910390f35b34801561048c57600080fd5b506104a760048036038101906104a29190612d9a565b610baa565b005b3480156104b557600080fd5b506104d060048036038101906104cb9190612a5a565b610c0c565b6040516104dd9190612a02565b60405180910390f35b3480156104f257600080fd5b5061050d60048036038101906105089190612ebe565b610c1e565b005b34801561051b57600080fd5b5061053660048036038101906105319190612f1a565b610c57565b6040516105439190612957565b60405180910390f35b34801561055857600080fd5b50610573600480360381019061056e9190612bcc565b610ceb565b005b600061058082610d6e565b9050919050565b60606000805461059690612f89565b80601f01602080910402602001604051908101604052809291908181526020018280546105c290612f89565b801561060f5780601f106105e45761010080835404028352916020019161060f565b820191906000526020600020905b8154815290600101906020018083116105f257829003601f168201915b5050505050905090565b600061062482610de8565b6004600083815260200190815260200160002060009054906101000a900473ffffffffffffffffffffffffffffffffffffffff169050919050565b600061066a82610975565b90508073ffffffffffffffffffffffffffffffffffffffff168373ffffffffffffffffffffffffffffffffffffffff16036106da576040517f08c379a00000000000000000000000000000000000000000000000000000000081526004016106d19061302c565b60405180910390fd5b8073ffffffffffffffffffffffffffffffffffffffff166106f9610e33565b73ffffffffffffffffffffffffffffffffffffffff161480610728575061072781610722610e33565b610c57565b5b610767576040517f08c379a000000000000000000000000000000000000000000000000000000000815260040161075e906130be565b60405180910390fd5b6107718383610e3b565b505050565b6000600880549050905090565b61079461078e610e33565b82610ef4565b6107d3576040517f08c379a00000000000000000000000000000000000000000000000000000000081526004016107ca90613150565b60405180910390fd5b6107de838383610f89565b505050565b60006107ee836109fb565b821061082f576040517f08c379a0000000000000000000000000000000000000000000000000000000008152600401610826906131e2565b60405180910390fd5b600660008473ffffffffffffffffffffffffffffffffffffffff1673ffffffffffffffffffffffffffffffffffffffff168152602001908152602001600020600083815260200190815260200160002054905092915050565b6108a383838360405180602001604052806000815250610baa565b505050565b6108b96108b3610e33565b82610ef4565b6108f8576040517f08c379a00000000000000000000000000000000000000000000000000000000081526004016108ef90613150565b60405180910390fd5b61090181611282565b50565b600061090e610776565b821061094f576040517f08c379a000000000000000000000000000000000000000000000000000000000815260040161094690613274565b60405180910390fd5b6008828154811061096357610962613294565b5b90600052602060002001549050919050565b60008061098183611304565b9050600073ffffffffffffffffffffffffffffffffffffffff168173ffffffffffffffffffffffffffffffffffffffff16036109f2576040517f08c379a00000000000000000000000000000000000000000000000000000000081526004016109e99061330f565b60405180910390fd5b80915050919050565b60008073ffffffffffffffffffffffffffffffffffffffff168273ffffffffffffffffffffffffffffffffffffffff1603610a6b576040517f08c379a0000000000000000000000000000000000000000000000000000000008152600401610a62906133a1565b60405180910390fd5b600360008373ffffffffffffffffffffffffffffffffffffffff1673ffffffffffffffffffffffffffffffffffffffff168152602001908152602001600020549050919050565b610aba611341565b610ac460006113bf565b565b6000600b60009054906101000a900473ffffffffffffffffffffffffffffffffffffffff16905090565b606060018054610aff90612f89565b80601f0160208091040260200160405190810160405280929190818152602001828054610b2b90612f89565b8015610b785780601f10610b4d57610100808354040283529160200191610b78565b820191906000526020600020905b815481529060010190602001808311610b5b57829003601f168201915b5050505050905090565b610b94610b8d610e33565b8383611485565b5050565b6000610ba3826109fb565b9050919050565b610bbb610bb5610e33565b83610ef4565b610bfa576040517f08c379a0000000000000000000000000000000000000000000000000000000008152600401610bf190613150565b60405180910390fd5b610c06848484846115f1565b50505050565b6060610c178261164d565b9050919050565b610c26611341565b6000610c32600c61175f565b9050610c3e600c61176d565b610c488382611783565b610c5281836117a1565b505050565b6000600560008473ffffffffffffffffffffffffffffffffffffffff1673ffffffffffffffffffffffffffffffffffffffff16815260200190815260200160002060008373ffffffffffffffffffffffffffffffffffffffff1673ffffffffffffffffffffffffffffffffffffffff16815260200190815260200160002060009054906101000a900460ff16905092915050565b610cf3611341565b600073ffffffffffffffffffffffffffffffffffffffff168173ffffffffffffffffffffffffffffffffffffffff1603610d62576040517f08c379a0000000000000000000000000000000000000000000000000000000008152600401610d5990613433565b60405180910390fd5b610d6b816113bf565b50565b60007f780e9d63000000000000000000000000000000000000000000000000000000007bffffffffffffffffffffffffffffffffffffffffffffffffffffffff1916827bffffffffffffffffffffffffffffffffffffffffffffffffffffffff19161480610de15750610de08261180e565b5b9050919050565b610df1816118f0565b610e30576040517f08c379a0000000000000000000000000000000000000000000000000000000008152600401610e279061330f565b60405180910390fd5b50565b600033905090565b816004600083815260200190815260200160002060006101000a81548173ffffffffffffffffffffffffffffffffffffffff021916908373ffffffffffffffffffffffffffffffffffffffff160217905550808273ffffffffffffffffffffffffffffffffffffffff16610eae83610975565b73ffffffffffffffffffffffffffffffffffffffff167f8c5be1e5ebec7d5bd14f71427d1e84f3dd0314c0f7b2291e5b200ac8c7c3b92560405160405180910390a45050565b600080610f0083610975565b90508073ffffffffffffffffffffffffffffffffffffffff168473ffffffffffffffffffffffffffffffffffffffff161480610f425750610f418185610c57565b5b80610f8057508373ffffffffffffffffffffffffffffffffffffffff16610f6884610619565b73ffffffffffffffffffffffffffffffffffffffff16145b91505092915050565b8273ffffffffffffffffffffffffffffffffffffffff16610fa982610975565b73ffffffffffffffffffffffffffffffffffffffff1614610fff576040517f08c379a0000000000000000000000000000000000000000000000000000000008152600401610ff6906134c5565b60405180910390fd5b600073ffffffffffffffffffffffffffffffffffffffff168273ffffffffffffffffffffffffffffffffffffffff160361106e576040517f08c379a000000000000000000000000000000000000000000000000000000000815260040161106590613557565b60405180910390fd5b61107b8383836001611931565b8273ffffffffffffffffffffffffffffffffffffffff1661109b82610975565b73ffffffffffffffffffffffffffffffffffffffff16146110f1576040517f08c379a00000000000000000000000000000000000000000000000000000000081526004016110e8906134c5565b60405180910390fd5b6004600082815260200190815260200160002060006101000a81549073ffffffffffffffffffffffffffffffffffffffff02191690556001600360008573ffffffffffffffffffffffffffffffffffffffff1673ffffffffffffffffffffffffffffffffffffffff168152602001908152602001600020600082825403925050819055506001600360008473ffffffffffffffffffffffffffffffffffffffff1673ffffffffffffffffffffffffffffffffffffffff16815260200190815260200160002060008282540192505081905550816002600083815260200190815260200160002060006101000a81548173ffffffffffffffffffffffffffffffffffffffff021916908373ffffffffffffffffffffffffffffffffffffffff160217905550808273ffffffffffffffffffffffffffffffffffffffff168473ffffffffffffffffffffffffffffffffffffffff167fddf252ad1be2c89b69c2b068fc378daa952ba7f163c4a11628f55a4df523b3ef60405160405180910390a461127d83838360016119e9565b505050565b3373ffffffffffffffffffffffffffffffffffffffff166112a282610975565b73ffffffffffffffffffffffffffffffffffffffff16146112f8576040517f08c379a00000000000000000000000000000000000000000000000000000000081526004016112ef906135e9565b60405180910390fd5b611301816119ef565b50565b60006002600083815260200190815260200160002060009054906101000a900473ffffffffffffffffffffffffffffffffffffffff169050919050565b611349610e33565b73ffffffffffffffffffffffffffffffffffffffff16611367610ac6565b73ffffffffffffffffffffffffffffffffffffffff16146113bd576040517f08c379a00000000000000000000000000000000000000000000000000000000081526004016113b490613655565b60405180910390fd5b565b6000600b60009054906101000a900473ffffffffffffffffffffffffffffffffffffffff16905081600b60006101000a81548173ffffffffffffffffffffffffffffffffffffffff021916908373ffffffffffffffffffffffffffffffffffffffff1602179055508173ffffffffffffffffffffffffffffffffffffffff168173ffffffffffffffffffffffffffffffffffffffff167f8be0079c531659141344cd1fd0a4f28419497f9722a3daafe3b4186f6b6457e060405160405180910390a35050565b8173ffffffffffffffffffffffffffffffffffffffff168373ffffffffffffffffffffffffffffffffffffffff16036114f3576040517f08c379a00000000000000000000000000000000000000000000000000000000081526004016114ea906136c1565b60405180910390fd5b80600560008573ffffffffffffffffffffffffffffffffffffffff1673ffffffffffffffffffffffffffffffffffffffff16815260200190815260200160002060008473ffffffffffffffffffffffffffffffffffffffff1673ffffffffffffffffffffffffffffffffffffffff16815260200190815260200160002060006101000a81548160ff0219169083151502179055508173ffffffffffffffffffffffffffffffffffffffff168373ffffffffffffffffffffffffffffffffffffffff167f17307eab39ab6107e8899845ad3d59bd9653f200f220920489ca2b5937696c31836040516115e49190612957565b60405180910390a3505050565b6115fc848484610f89565b61160884848484611a42565b611647576040517f08c379a000000000000000000000000000000000000000000000000000000000815260040161163e90613753565b60405180910390fd5b50505050565b606061165882610de8565b6000600a6000848152602001908152602001600020805461167890612f89565b80601f01602080910402602001604051908101604052809291908181526020018280546116a490612f89565b80156116f15780601f106116c6576101008083540402835291602001916116f1565b820191906000526020600020905b8154815290600101906020018083116116d457829003601f168201915b505050505090506000611702611bc9565b9050600081510361171757819250505061175a565b60008251111561174c5780826040516020016117349291906137af565b6040516020818303038152906040529250505061175a565b61175584611be0565b925050505b919050565b600081600001549050919050565b6001816000016000828254019250508190555050565b61179d828260405180602001604052806000815250611c48565b5050565b6117aa826118f0565b6117e9576040517f08c379a00000000000000000000000000000000000000000000000000000000081526004016117e090613845565b60405180910390fd5b80600a600084815260200190815260200160002090816118099190613a11565b505050565b60007f80ac58cd000000000000000000000000000000000000000000000000000000007bffffffffffffffffffffffffffffffffffffffffffffffffffffffff1916827bffffffffffffffffffffffffffffffffffffffffffffffffffffffff191614806118d957507f5b5e139f000000000000000000000000000000000000000000000000000000007bffffffffffffffffffffffffffffffffffffffffffffffffffffffff1916827bffffffffffffffffffffffffffffffffffffffffffffffffffffffff1916145b806118e957506118e882611ca3565b5b9050919050565b60008073ffffffffffffffffffffffffffffffffffffffff1661191283611304565b73ffffffffffffffffffffffffffffffffffffffff1614159050919050565b600073ffffffffffffffffffffffffffffffffffffffff168473ffffffffffffffffffffffffffffffffffffffff1614806119985750600073ffffffffffffffffffffffffffffffffffffffff168373ffffffffffffffffffffffffffffffffffffffff16145b6119d7576040517f08c379a00000000000000000000000000000000000000000000000000000000081526004016119ce90613b7b565b60405180910390fd5b6119e384848484611d0d565b50505050565b50505050565b6119f881611e6b565b6000600a60008381526020019081526020016000208054611a1890612f89565b905014611a3f57600a60008281526020019081526020016000206000611a3e9190612846565b5b50565b6000611a638473ffffffffffffffffffffffffffffffffffffffff16611fb9565b15611bbc578373ffffffffffffffffffffffffffffffffffffffff1663150b7a02611a8c610e33565b8786866040518563ffffffff1660e01b8152600401611aae9493929190613bf0565b6020604051808303816000875af1925050508015611aea57506040513d601f19601f82011682018060405250810190611ae79190613c51565b60015b611b6c573d8060008114611b1a576040519150601f19603f3d011682016040523d82523d6000602084013e611b1f565b606091505b506000815103611b64576040517f08c379a0000000000000000000000000000000000000000000000000000000008152600401611b5b90613753565b60405180910390fd5b805181602001fd5b63150b7a0260e01b7bffffffffffffffffffffffffffffffffffffffffffffffffffffffff1916817bffffffffffffffffffffffffffffffffffffffffffffffffffffffff191614915050611bc1565b600190505b949350505050565b606060405180602001604052806000815250905090565b6060611beb82610de8565b6000611bf5611bc9565b90506000815111611c155760405180602001604052806000815250611c40565b80611c1f84611fdc565b604051602001611c309291906137af565b6040516020818303038152906040525b915050919050565b611c5283836120aa565b611c5f6000848484611a42565b611c9e576040517f08c379a0000000000000000000000000000000000000000000000000000000008152600401611c9590613753565b60405180910390fd5b505050565b60007f01ffc9a7000000000000000000000000000000000000000000000000000000007bffffffffffffffffffffffffffffffffffffffffffffffffffffffff1916827bffffffffffffffffffffffffffffffffffffffffffffffffffffffff1916149050919050565b611d19848484846122c7565b6001811115611d5d576040517f08c379a0000000000000000000000000000000000000000000000000000000008152600401611d5490613cf0565b60405180910390fd5b6000829050600073ffffffffffffffffffffffffffffffffffffffff168573ffffffffffffffffffffffffffffffffffffffff1603611da457611d9f816123ed565b611de3565b8373ffffffffffffffffffffffffffffffffffffffff168573ffffffffffffffffffffffffffffffffffffffff1614611de257611de18582612436565b5b5b600073ffffffffffffffffffffffffffffffffffffffff168473ffffffffffffffffffffffffffffffffffffffff1603611e2557611e20816125a3565b611e64565b8473ffffffffffffffffffffffffffffffffffffffff168473ffffffffffffffffffffffffffffffffffffffff1614611e6357611e628482612674565b5b5b5050505050565b6000611e7682610975565b9050611e86816000846001611931565b611e8f82610975565b90506004600083815260200190815260200160002060006101000a81549073ffffffffffffffffffffffffffffffffffffffff02191690556001600360008373ffffffffffffffffffffffffffffffffffffffff1673ffffffffffffffffffffffffffffffffffffffff168152602001908152602001600020600082825403925050819055506002600083815260200190815260200160002060006101000a81549073ffffffffffffffffffffffffffffffffffffffff021916905581600073ffffffffffffffffffffffffffffffffffffffff168273ffffffffffffffffffffffffffffffffffffffff167fddf252ad1be2c89b69c2b068fc378daa952ba7f163c4a11628f55a4df523b3ef60405160405180910390a4611fb58160008460016119e9565b5050565b6000808273ffffffffffffffffffffffffffffffffffffffff163b119050919050565b606060006001611feb846126f3565b01905060008167ffffffffffffffff81111561200a57612009612c6f565b5b6040519080825280601f01601f19166020018201604052801561203c5781602001600182028036833780820191505090505b509050600082602001820190505b60011561209f578080600190039150507f3031323334353637383961626364656600000000000000000000000000000000600a86061a8153600a858161209357612092613d10565b5b0494506000850361204a575b819350505050919050565b600073ffffffffffffffffffffffffffffffffffffffff168273ffffffffffffffffffffffffffffffffffffffff1603612119576040517f08c379a000000000000000000000000000000000000000000000000000000000815260040161211090613d8b565b60405180910390fd5b612122816118f0565b15612162576040517f08c379a000000000000000000000000000000000000000000000000000000000815260040161215990613df7565b60405180910390fd5b612170600083836001611931565b612179816118f0565b156121b9576040517f08c379a00000000000000000000000000000000000000000000000000000000081526004016121b090613df7565b60405180910390fd5b6001600360008473ffffffffffffffffffffffffffffffffffffffff1673ffffffffffffffffffffffffffffffffffffffff16815260200190815260200160002060008282540192505081905550816002600083815260200190815260200160002060006101000a81548173ffffffffffffffffffffffffffffffffffffffff021916908373ffffffffffffffffffffffffffffffffffffffff160217905550808273ffffffffffffffffffffffffffffffffffffffff16600073ffffffffffffffffffffffffffffffffffffffff167fddf252ad1be2c89b69c2b068fc378daa952ba7f163c4a11628f55a4df523b3ef60405160405180910390a46122c36000838360016119e9565b5050565b60018111156123e757600073ffffffffffffffffffffffffffffffffffffffff168473ffffffffffffffffffffffffffffffffffffffff161461235b5780600360008673ffffffffffffffffffffffffffffffffffffffff1673ffffffffffffffffffffffffffffffffffffffff16815260200190815260200160002060008282546123539190613e46565b925050819055505b600073ffffffffffffffffffffffffffffffffffffffff168373ffffffffffffffffffffffffffffffffffffffff16146123e65780600360008573ffffffffffffffffffffffffffffffffffffffff1673ffffffffffffffffffffffffffffffffffffffff16815260200190815260200160002060008282546123de9190613e7a565b925050819055505b5b50505050565b6008805490506009600083815260200190815260200160002081905550600881908060018154018082558091505060019003906000526020600020016000909190919091505550565b60006001612443846109fb565b61244d9190613e46565b9050600060076000848152602001908152602001600020549050818114612532576000600660008673ffffffffffffffffffffffffffffffffffffffff1673ffffffffffffffffffffffffffffffffffffffff168152602001908152602001600020600084815260200190815260200160002054905080600660008773ffffffffffffffffffffffffffffffffffffffff1673ffffffffffffffffffffffffffffffffffffffff168152602001908152602001600020600084815260200190815260200160002081905550816007600083815260200190815260200160002081905550505b6007600084815260200190815260200160002060009055600660008573ffffffffffffffffffffffffffffffffffffffff1673ffffffffffffffffffffffffffffffffffffffff16815260200190815260200160002060008381526020019081526020016000206000905550505050565b600060016008805490506125b79190613e46565b90506000600960008481526020019081526020016000205490506000600883815481106125e7576125e6613294565b5b90600052602060002001549050806008838154811061260957612608613294565b5b90600052602060002001819055508160096000838152602001908152602001600020819055506009600085815260200190815260200160002060009055600880548061265857612657613eae565b5b6001900381819060005260206000200160009055905550505050565b600061267f836109fb565b905081600660008573ffffffffffffffffffffffffffffffffffffffff1673ffffffffffffffffffffffffffffffffffffffff168152602001908152602001600020600083815260200190815260200160002081905550806007600084815260200190815260200160002081905550505050565b600080600090507a184f03e93ff9f4daa797ed6e38ed64bf6a1f0100000000000000008310612751577a184f03e93ff9f4daa797ed6e38ed64bf6a1f010000000000000000838161274757612746613d10565b5b0492506040810190505b6d04ee2d6d415b85acef8100000000831061278e576d04ee2d6d415b85acef8100000000838161278457612783613d10565b5b0492506020810190505b662386f26fc1000083106127bd57662386f26fc1000083816127b3576127b2613d10565b5b0492506010810190505b6305f5e10083106127e6576305f5e10083816127dc576127db613d10565b5b0492506008810190505b612710831061280b57612710838161280157612800613d10565b5b0492506004810190505b6064831061282e576064838161282457612823613d10565b5b0492506002810190505b600a831061283d576001810190505b80915050919050565b50805461285290612f89565b6000825580601f106128645750612883565b601f0160209004906000526020600020908101906128829190612886565b5b50565b5b8082111561289f576000816000905550600101612887565b5090565b6000604051905090565b600080fd5b600080fd5b60007fffffffff0000000000000000000000000000000000000000000000000000000082169050919050565b6128ec816128b7565b81146128f757600080fd5b50565b600081359050612909816128e3565b92915050565b600060208284031215612925576129246128ad565b5b6000612933848285016128fa565b91505092915050565b60008115159050919050565b6129518161293c565b82525050565b600060208201905061296c6000830184612948565b92915050565b600081519050919050565b600082825260208201905092915050565b60005b838110156129ac578082015181840152602081019050612991565b60008484015250505050565b6000601f19601f8301169050919050565b60006129d482612972565b6129de818561297d565b93506129ee81856020860161298e565b6129f7816129b8565b840191505092915050565b60006020820190508181036000830152612a1c81846129c9565b905092915050565b6000819050919050565b612a3781612a24565b8114612a4257600080fd5b50565b600081359050612a5481612a2e565b92915050565b600060208284031215612a7057612a6f6128ad565b5b6000612a7e84828501612a45565b91505092915050565b600073ffffffffffffffffffffffffffffffffffffffff82169050919050565b6000612ab282612a87565b9050919050565b612ac281612aa7565b82525050565b6000602082019050612add6000830184612ab9565b92915050565b612aec81612aa7565b8114612af757600080fd5b50565b600081359050612b0981612ae3565b92915050565b60008060408385031215612b2657612b256128ad565b5b6000612b3485828601612afa565b9250506020612b4585828601612a45565b9150509250929050565b612b5881612a24565b82525050565b6000602082019050612b736000830184612b4f565b92915050565b600080600060608486031215612b9257612b916128ad565b5b6000612ba086828701612afa565b9350506020612bb186828701612afa565b9250506040612bc286828701612a45565b9150509250925092565b600060208284031215612be257612be16128ad565b5b6000612bf084828501612afa565b91505092915050565b612c028161293c565b8114612c0d57600080fd5b50565b600081359050612c1f81612bf9565b92915050565b60008060408385031215612c3c57612c3b6128ad565b5b6000612c4a85828601612afa565b9250506020612c5b85828601612c10565b9150509250929050565b600080fd5b600080fd5b7f4e487b7100000000000000000000000000000000000000000000000000000000600052604160045260246000fd5b612ca7826129b8565b810181811067ffffffffffffffff82111715612cc657612cc5612c6f565b5b80604052505050565b6000612cd96128a3565b9050612ce58282612c9e565b919050565b600067ffffffffffffffff821115612d0557612d04612c6f565b5b612d0e826129b8565b9050602081019050919050565b82818337600083830152505050565b6000612d3d612d3884612cea565b612ccf565b905082815260208101848484011115612d5957612d58612c6a565b5b612d64848285612d1b565b509392505050565b600082601f830112612d8157612d80612c65565b5b8135612d91848260208601612d2a565b91505092915050565b60008060008060808587031215612db457612db36128ad565b5b6000612dc287828801612afa565b9450506020612dd387828801612afa565b9350506040612de487828801612a45565b925050606085013567ffffffffffffffff811115612e0557612e046128b2565b5b612e1187828801612d6c565b91505092959194509250565b600067ffffffffffffffff821115612e3857612e37612c6f565b5b612e41826129b8565b9050602081019050919050565b6000612e61612e5c84612e1d565b612ccf565b905082815260208101848484011115612e7d57612e7c612c6a565b5b612e88848285612d1b565b509392505050565b600082601f830112612ea557612ea4612c65565b5b8135612eb5848260208601612e4e565b91505092915050565b60008060408385031215612ed557612ed46128ad565b5b6000612ee385828601612afa565b925050602083013567ffffffffffffffff811115612f0457612f036128b2565b5b612f1085828601612e90565b9150509250929050565b60008060408385031215612f3157612f306128ad565b5b6000612f3f85828601612afa565b9250506020612f5085828601612afa565b9150509250929050565b7f4e487b7100000000000000000000000000000000000000000000000000000000600052602260045260246000fd5b60006002820490506001821680612fa157607f821691505b602082108103612fb457612fb3612f5a565b5b50919050565b7f4552433732313a20617070726f76616c20746f2063757272656e74206f776e6560008201527f7200000000000000000000000000000000000000000000000000000000000000602082015250565b600061301660218361297d565b915061302182612fba565b604082019050919050565b6000602082019050818103600083015261304581613009565b9050919050565b7f4552433732313a20617070726f76652063616c6c6572206973206e6f7420746f60008201527f6b656e206f776e6572206f7220617070726f76656420666f7220616c6c000000602082015250565b60006130a8603d8361297d565b91506130b38261304c565b604082019050919050565b600060208201905081810360008301526130d78161309b565b9050919050565b7f4552433732313a2063616c6c6572206973206e6f7420746f6b656e206f776e6560008201527f72206f7220617070726f76656400000000000000000000000000000000000000602082015250565b600061313a602d8361297d565b9150613145826130de565b604082019050919050565b600060208201905081810360008301526131698161312d565b9050919050565b7f455243373231456e756d657261626c653a206f776e657220696e646578206f7560008201527f74206f6620626f756e6473000000000000000000000000000000000000000000602082015250565b60006131cc602b8361297d565b91506131d782613170565b604082019050919050565b600060208201905081810360008301526131fb816131bf565b9050919050565b7f455243373231456e756d657261626c653a20676c6f62616c20696e646578206f60008201527f7574206f6620626f756e64730000000000000000000000000000000000000000602082015250565b600061325e602c8361297d565b915061326982613202565b604082019050919050565b6000602082019050818103600083015261328d81613251565b9050919050565b7f4e487b7100000000000000000000000000000000000000000000000000000000600052603260045260246000fd5b7f4552433732313a20696e76616c696420746f6b656e2049440000000000000000600082015250565b60006132f960188361297d565b9150613304826132c3565b602082019050919050565b60006020820190508181036000830152613328816132ec565b9050919050565b7f4552433732313a2061646472657373207a65726f206973206e6f74206120766160008201527f6c6964206f776e65720000000000000000000000000000000000000000000000602082015250565b600061338b60298361297d565b91506133968261332f565b604082019050919050565b600060208201905081810360008301526133ba8161337e565b9050919050565b7f4f776e61626c653a206e6577206f776e657220697320746865207a65726f206160008201527f6464726573730000000000000000000000000000000000000000000000000000602082015250565b600061341d60268361297d565b9150613428826133c1565b604082019050919050565b6000602082019050818103600083015261344c81613410565b9050919050565b7f4552433732313a207472616e736665722066726f6d20696e636f72726563742060008201527f6f776e6572000000000000000000000000000000000000000000000000000000602082015250565b60006134af60258361297d565b91506134ba82613453565b604082019050919050565b600060208201905081810360008301526134de816134a2565b9050919050565b7f4552433732313a207472616e7366657220746f20746865207a65726f2061646460008201527f7265737300000000000000000000000000000000000000000000000000000000602082015250565b600061354160248361297d565b915061354c826134e5565b604082019050919050565b6000602082019050818103600083015261357081613534565b9050919050565b7f4f6e6c7920746865206f776e6572206f662074686520746f6b656e2063616e2060008201527f6275726e2069742e000000000000000000000000000000000000000000000000602082015250565b60006135d360288361297d565b91506135de82613577565b604082019050919050565b60006020820190508181036000830152613602816135c6565b9050919050565b7f4f776e61626c653a2063616c6c6572206973206e6f7420746865206f776e6572600082015250565b600061363f60208361297d565b915061364a82613609565b602082019050919050565b6000602082019050818103600083015261366e81613632565b9050919050565b7f4552433732313a20617070726f766520746f2063616c6c657200000000000000600082015250565b60006136ab60198361297d565b91506136b682613675565b602082019050919050565b600060208201905081810360008301526136da8161369e565b9050919050565b7f4552433732313a207472616e7366657220746f206e6f6e20455243373231526560008201527f63656976657220696d706c656d656e7465720000000000000000000000000000602082015250565b600061373d60328361297d565b9150613748826136e1565b604082019050919050565b6000602082019050818103600083015261376c81613730565b9050919050565b600081905092915050565b600061378982612972565b6137938185613773565b93506137a381856020860161298e565b80840191505092915050565b60006137bb828561377e565b91506137c7828461377e565b91508190509392505050565b7f45524337323155524953746f726167653a2055524920736574206f66206e6f6e60008201527f6578697374656e7420746f6b656e000000000000000000000000000000000000602082015250565b600061382f602e8361297d565b915061383a826137d3565b604082019050919050565b6000602082019050818103600083015261385e81613822565b9050919050565b60008190508160005260206000209050919050565b60006020601f8301049050919050565b600082821b905092915050565b6000600883026138c77fffffffffffffffffffffffffffffffffffffffffffffffffffffffffffffffff8261388a565b6138d1868361388a565b95508019841693508086168417925050509392505050565b6000819050919050565b600061390e61390961390484612a24565b6138e9565b612a24565b9050919050565b6000819050919050565b613928836138f3565b61393c61393482613915565b848454613897565b825550505050565b600090565b613951613944565b61395c81848461391f565b505050565b5b8181101561398057613975600082613949565b600181019050613962565b5050565b601f8211156139c55761399681613865565b61399f8461387a565b810160208510156139ae578190505b6139c26139ba8561387a565b830182613961565b50505b505050565b600082821c905092915050565b60006139e8600019846008026139ca565b1980831691505092915050565b6000613a0183836139d7565b9150826002028217905092915050565b613a1a82612972565b67ffffffffffffffff811115613a3357613a32612c6f565b5b613a3d8254612f89565b613a48828285613984565b600060209050601f831160018114613a7b5760008415613a69578287015190505b613a7385826139f5565b865550613adb565b601f198416613a8986613865565b60005b82811015613ab157848901518255600182019150602085019450602081019050613a8c565b86831015613ace5784890151613aca601f8916826139d7565b8355505b6001600288020188555050505b505050505050565b7f54686973206120536f756c626f756e6420746f6b656e2e2049742063616e6e6f60008201527f74206265207472616e736665727265642e2049742063616e206f6e6c7920626560208201527f206275726e65642062792074686520746f6b656e206f776e65722e0000000000604082015250565b6000613b65605b8361297d565b9150613b7082613ae3565b606082019050919050565b60006020820190508181036000830152613b9481613b58565b9050919050565b600081519050919050565b600082825260208201905092915050565b6000613bc282613b9b565b613bcc8185613ba6565b9350613bdc81856020860161298e565b613be5816129b8565b840191505092915050565b6000608082019050613c056000830187612ab9565b613c126020830186612ab9565b613c1f6040830185612b4f565b8181036060830152613c318184613bb7565b905095945050505050565b600081519050613c4b816128e3565b92915050565b600060208284031215613c6757613c666128ad565b5b6000613c7584828501613c3c565b91505092915050565b7f455243373231456e756d657261626c653a20636f6e736563757469766520747260008201527f616e7366657273206e6f7420737570706f727465640000000000000000000000602082015250565b6000613cda60358361297d565b9150613ce582613c7e565b604082019050919050565b60006020820190508181036000830152613d0981613ccd565b9050919050565b7f4e487b7100000000000000000000000000000000000000000000000000000000600052601260045260246000fd5b7f4552433732313a206d696e7420746f20746865207a65726f2061646472657373600082015250565b6000613d7560208361297d565b9150613d8082613d3f565b602082019050919050565b60006020820190508181036000830152613da481613d68565b9050919050565b7f4552433732313a20746f6b656e20616c7265616479206d696e74656400000000600082015250565b6000613de1601c8361297d565b9150613dec82613dab565b602082019050919050565b60006020820190508181036000830152613e1081613dd4565b9050919050565b7f4e487b7100000000000000000000000000000000000000000000000000000000600052601160045260246000fd5b6000613e5182612a24565b9150613e5c83612a24565b9250828203905081811115613e7457613e73613e17565b5b92915050565b6000613e8582612a24565b9150613e9083612a24565b9250828201905080821115613ea857613ea7613e17565b5b92915050565b7f4e487b7100000000000000000000000000000000000000000000000000000000600052603160045260246000fdfea26469706673582212202a0102a445805695f5ea29d26ad6d15088ea3ea0b9dcdafe9343e8d1dc39556764736f6c63430008110033",
  "linkReferences": {},
  "deployedLinkReferences": {}
}