{
  "_format": "hh-sol-artifact-1",
  "contractName": "Certificate",
  "sourceName": "contracts/Certificate.sol",
  "abi": [
    {
      "inputs": [],
      "stateMutability": "nonpayable",
      "type": "constructor"
    },
    {
      "anonymous": false,
      "inputs": [
        {
          "indexed": true,
          "internalType": "address",
          "name": "owner",
          "type": "address"
        },
        {
          "indexed": true,
          "internalType": "address",
          "name": "approved",
          "type": "address"
        },
        {
          "indexed": true,
          "internalType": "uint256",
          "name": "tokenId",
          "type": "uint256"
        }
      ],
      "name": "Approval",
      "type": "event"
    },
    {
      "anonymous": false,
      "inputs": [
        {
          "indexed": true,
          "internalType": "address",
          "name": "owner",
          "type": "address"
        },
        {
          "indexed": true,
          "internalType": "address",
          "name": "operator",
          "type": "address"
        },
        {
          "indexed": false,
          "internalType": "bool",
          "name": "approved",
          "type": "bool"
        }
      ],
      "name": "ApprovalForAll",
      "type": "event"
    },
    {
      "anonymous": false,
      "inputs": [
        {
          "indexed": true,
          "internalType": "address",
          "name": "previousOwner",
          "type": "address"
        },
        {
          "indexed": true,
          "internalType": "address",
          "name": "newOwner",
          "type": "address"
        }
      ],
      "name": "OwnershipTransferred",
      "type": "event"
    },
    {
      "anonymous": false,
      "inputs": [
        {
          "indexed": true,
          "internalType": "address",
          "name": "from",
          "type": "address"
        },
        {
          "indexed": true,
          "internalType": "address",
          "name": "to",
          "type": "address"
        },
        {
          "indexed": true,
          "internalType": "uint256",
          "name": "tokenId",
          "type": "uint256"
        }
      ],
      "name": "Transfer",
      "type": "event"
    },
    {
      "inputs": [
        {
          "internalType": "address",
          "name": "to",
          "type": "address"
        },
        {
          "internalType": "uint256",
          "name": "tokenId",
          "type": "uint256"
        }
      ],
      "name": "approve",
      "outputs": [],
      "stateMutability": "nonpayable",
      "type": "function"
    },
    {
      "inputs": [
        {
          "internalType": "address",
          "name": "owner",
          "type": "address"
        }
      ],
      "name": "balanceOf",
      "outputs": [
        {
          "internalType": "uint256",
          "name": "",
          "type": "uint256"
        }
      ],
      "stateMutability": "view",
      "type": "function"
    },
    {
      "inputs": [
        {
          "internalType": "uint256",
          "name": "tokenId",
          "type": "uint256"
        }
      ],
      "name": "burn",
      "outputs": [],
      "stateMutability": "nonpayable",
      "type": "function"
    },
    {
      "inputs": [
        {
          "internalType": "uint256",
          "name": "tokenId",
          "type": "uint256"
        }
      ],
      "name": "getApproved",
      "outputs": [
        {
          "internalType": "address",
          "name": "",
          "type": "address"
        }
      ],
      "stateMutability": "view",
      "type": "function"
    },
    {
      "inputs": [
        {
          "internalType": "address",
          "name": "owner",
          "type": "address"
        },
        {
          "internalType": "address",
          "name": "operator",
          "type": "address"
        }
      ],
      "name": "isApprovedForAll",
      "outputs": [
        {
          "internalType": "bool",
          "name": "",
          "type": "bool"
        }
      ],
      "stateMutability": "view",
      "type": "function"
    },
    {
      "inputs": [],
      "name": "name",
      "outputs": [
        {
          "internalType": "string",
          "name": "",
          "type": "string"
        }
      ],
      "stateMutability": "view",
      "type": "function"
    },
    {
      "inputs": [],
      "name": "owner",
      "outputs": [
        {
          "internalType": "address",
          "name": "",
          "type": "address"
        }
      ],
      "stateMutability": "view",
      "type": "function"
    },
    {
      "inputs": [
        {
          "internalType": "uint256",
          "name": "tokenId",
          "type": "uint256"
        }
      ],
      "name": "ownerOf",
      "outputs": [
        {
          "internalType": "address",
          "name": "",
          "type": "address"
        }
      ],
      "stateMutability": "view",
      "type": "function"
    },
    {
      "inputs": [],
      "name": "renounceOwnership",
      "outputs": [],
      "stateMutability": "nonpayable",
      "type": "function"
    },
    {
      "inputs": [
        {
          "internalType": "address",
          "name": "to",
          "type": "address"
        },
        {
          "internalType": "string",
          "name": "uri",
          "type": "string"
        }
      ],
      "name": "safeMint",
      "outputs": [],
      "stateMutability": "nonpayable",
      "type": "function"
    },
    {
      "inputs": [
        {
          "internalType": "address",
          "name": "from",
          "type": "address"
        },
        {
          "internalType": "address",
          "name": "to",
          "type": "address"
        },
        {
          "internalType": "uint256",
          "name": "tokenId",
          "type": "uint256"
        }
      ],
      "name": "safeTransferFrom",
      "outputs": [],
      "stateMutability": "nonpayable",
      "type": "function"
    },
    {
      "inputs": [
        {
          "internalType": "address",
          "name": "from",
          "type": "address"
        },
        {
          "internalType": "address",
          "name": "to",
          "type": "address"
        },
        {
          "internalType": "uint256",
          "name": "tokenId",
          "type": "uint256"
        },
        {
          "internalType": "bytes",
          "name": "data",
          "type": "bytes"
        }
      ],
      "name": "safeTransferFrom",
      "outputs": [],
      "stateMutability": "nonpayable",
      "type": "function"
    },
    {
      "inputs": [
        {
          "internalType": "address",
          "name": "operator",
          "type": "address"
        },
        {
          "internalType": "bool",
          "name": "approved",
          "type": "bool"
        }
      ],
      "name": "setApprovalForAll",
      "outputs": [],
      "stateMutability": "nonpayable",
      "type": "function"
    },
    {
      "inputs": [
        {
          "internalType": "bytes4",
          "name": "interfaceId",
          "type": "bytes4"
        }
      ],
      "name": "supportsInterface",
      "outputs": [
        {
          "internalType": "bool",
          "name": "",
          "type": "bool"
        }
      ],
      "stateMutability": "view",
      "type": "function"
    },
    {
      "inputs": [],
      "name": "symbol",
      "outputs": [
        {
          "internalType": "string",
          "name": "",
          "type": "string"
        }
      ],
      "stateMutability": "view",
      "type": "function"
    },
    {
      "inputs": [
        {
          "internalType": "uint256",
          "name": "index",
          "type": "uint256"
        }
      ],
      "name": "tokenByIndex",
      "outputs": [
        {
          "internalType": "uint256",
          "name": "",
          "type": "uint256"
        }
      ],
      "stateMutability": "view",
      "type": "function"
    },
    {
      "inputs": [
        {
          "internalType": "address",
          "name": "owner",
          "type": "address"
        },
        {
          "internalType": "uint256",
          "name": "index",
          "type": "uint256"
        }
      ],
      "name": "tokenOfOwnerByIndex",
      "outputs": [
        {
          "internalType": "uint256",
          "name": "",
          "type": "uint256"
        }
      ],
      "stateMutability": "view",
      "type": "function"
    },
    {
      "inputs": [
        {
          "internalType": "uint256",
          "name": "tokenId",
          "type": "uint256"
        }
      ],
      "name": "tokenURI",
      "outputs": [
        {
          "internalType": "string",
          "name": "",
          "type": "string"
        }
      ],
      "stateMutability": "view",
      "type": "function"
    },
    {
      "inputs": [],
      "name": "totalSupply",
      "outputs": [
        {
          "internalType": "uint256",
          "name": "",
          "type": "uint256"
        }
      ],
      "stateMutability": "view",
      "type": "function"
    },
    {
      "inputs": [
        {
          "internalType": "address",
          "name": "from",
          "type": "address"
        },
        {
          "internalType": "address",
          "name": "to",
          "type": "address"
        },
        {
          "internalType": "uint256",
          "name": "tokenId",
          "type": "uint256"
        }
      ],
      "name": "transferFrom",
      "outputs": [],
      "stateMutability": "nonpayable",
      "type": "function"
    },
    {
      "inputs": [
        {
          "internalType": "address",
          "name": "newOwner",
          "type": "address"
        }
      ],
      "name": "transferOwnership",
      "outputs": [],
      "stateMutability": "nonpayable",
      "type": "function"
    },
    {
      "stateMutability": "payable",
      "type": "receive"
    }
  ],
  "bytecode": "0x60806040523480156200001157600080fd5b506040518060400160405280600b81526020017f43657274696669636174650000000000000000000000000000000000000000008152506040518060400160405280600381526020017f43544b000000000000000000000000000000000000000000000000000000000081525081600090816200008f919062000412565b508060019081620000a1919062000412565b505050620000c4620000b8620000ca60201b60201c565b620000d260201b60201c565b620004f9565b600033905090565b6000600b60009054906101000a900473ffffffffffffffffffffffffffffffffffffffff16905081600b60006101000a81548173ffffffffffffffffffffffffffffffffffffffff021916908373ffffffffffffffffffffffffffffffffffffffff1602179055508173ffffffffffffffffffffffffffffffffffffffff168173ffffffffffffffffffffffffffffffffffffffff167f8be0079c531659141344cd1fd0a4f28419497f9722a3daafe3b4186f6b6457e060405160405180910390a35050565b600081519050919050565b7f4e487b7100000000000000000000000000000000000000000000000000000000600052604160045260246000fd5b7f4e487b7100000000000000000000000000000000000000000000000000000000600052602260045260246000fd5b600060028204905060018216806200021a57607f821691505b60208210810362000230576200022f620001d2565b5b50919050565b60008190508160005260206000209050919050565b60006020601f8301049050919050565b600082821b905092915050565b6000600883026200029a7fffffffffffffffffffffffffffffffffffffffffffffffffffffffffffffffff826200025b565b620002a686836200025b565b95508019841693508086168417925050509392505050565b6000819050919050565b6000819050919050565b6000620002f3620002ed620002e784620002be565b620002c8565b620002be565b9050919050565b6000819050919050565b6200030f83620002d2565b620003276200031e82620002fa565b84845462000268565b825550505050565b600090565b6200033e6200032f565b6200034b81848462000304565b505050565b5b8181101562000373576200036760008262000334565b60018101905062000351565b5050565b601f821115620003c2576200038c8162000236565b62000397846200024b565b81016020851015620003a7578190505b620003bf620003b6856200024b565b83018262000350565b50505b505050565b600082821c905092915050565b6000620003e760001984600802620003c7565b1980831691505092915050565b6000620004028383620003d4565b9150826002028217905092915050565b6200041d8262000198565b67ffffffffffffffff811115620004395762000438620001a3565b5b62000445825462000201565b6200045282828562000377565b600060209050601f8311600181146200048a576000841562000475578287015190505b620004818582620003f4565b865550620004f1565b601f1984166200049a8662000236565b60005b82811015620004c4578489015182556001820191506020850194506020810190506200049d565b86831015620004e45784890151620004e0601f891682620003d4565b8355505b6001600288020188555050505b505050505050565b613eb980620005096000396000f3fe60806040526004361061012e5760003560e01c80636352211e116100ab578063a22cb4651161006f578063a22cb4651461040f578063b88d4fde14610438578063c87b56dd14610461578063d204c45e1461049e578063e985e9c5146104c7578063f2fde38b1461050457610135565b80636352211e1461032857806370a0823114610365578063715018a6146103a25780638da5cb5b146103b957806395d89b41146103e457610135565b806323b872dd116100f257806323b872dd146102335780632f745c591461025c57806342842e0e1461029957806342966c68146102c25780634f6ccce7146102eb57610135565b806301ffc9a71461013a57806306fdde0314610177578063081812fc146101a2578063095ea7b3146101df57806318160ddd1461020857610135565b3661013557005b600080fd5b34801561014657600080fd5b50610161600480360381019061015c91906128b5565b61052d565b60405161016e91906128fd565b60405180910390f35b34801561018357600080fd5b5061018c61053f565b60405161019991906129a8565b60405180910390f35b3480156101ae57600080fd5b506101c960048036038101906101c49190612a00565b6105d1565b6040516101d69190612a6e565b60405180910390f35b3480156101eb57600080fd5b5061020660048036038101906102019190612ab5565b610617565b005b34801561021457600080fd5b5061021d61072e565b60405161022a9190612b04565b60405180910390f35b34801561023f57600080fd5b5061025a60048036038101906102559190612b1f565b61073b565b005b34801561026857600080fd5b50610283600480360381019061027e9190612ab5565b61079b565b6040516102909190612b04565b60405180910390f35b3480156102a557600080fd5b506102c060048036038101906102bb9190612b1f565b610840565b005b3480156102ce57600080fd5b506102e960048036038101906102e49190612a00565b610860565b005b3480156102f757600080fd5b50610312600480360381019061030d9190612a00565b6108bc565b60405161031f9190612b04565b60405180910390f35b34801561033457600080fd5b5061034f600480360381019061034a9190612a00565b61092d565b60405161035c9190612a6e565b60405180910390f35b34801561037157600080fd5b5061038c60048036038101906103879190612b72565b6109b3565b6040516103999190612b04565b60405180910390f35b3480156103ae57600080fd5b506103b7610a6a565b005b3480156103c557600080fd5b506103ce610a7e565b6040516103db9190612a6e565b60405180910390f35b3480156103f057600080fd5b506103f9610aa8565b60405161040691906129a8565b60405180910390f35b34801561041b57600080fd5b5061043660048036038101906104319190612bcb565b610b3a565b005b34801561044457600080fd5b5061045f600480360381019061045a9190612d40565b610b50565b005b34801561046d57600080fd5b5061048860048036038101906104839190612a00565b610bb2565b60405161049591906129a8565b60405180910390f35b3480156104aa57600080fd5b506104c560048036038101906104c09190612e64565b610bc4565b005b3480156104d357600080fd5b506104ee60048036038101906104e99190612ec0565b610bfd565b6040516104fb91906128fd565b60405180910390f35b34801561051057600080fd5b5061052b60048036038101906105269190612b72565b610c91565b005b600061053882610d14565b9050919050565b60606000805461054e90612f2f565b80601f016020809104026020016040519081016040528092919081815260200182805461057a90612f2f565b80156105c75780601f1061059c576101008083540402835291602001916105c7565b820191906000526020600020905b8154815290600101906020018083116105aa57829003601f168201915b5050505050905090565b60006105dc82610d8e565b6004600083815260200190815260200160002060009054906101000a900473ffffffffffffffffffffffffffffffffffffffff169050919050565b60006106228261092d565b90508073ffffffffffffffffffffffffffffffffffffffff168373ffffffffffffffffffffffffffffffffffffffff1603610692576040517f08c379a000000000000000000000000000000000000000000000000000000000815260040161068990612fd2565b60405180910390fd5b8073ffffffffffffffffffffffffffffffffffffffff166106b1610dd9565b73ffffffffffffffffffffffffffffffffffffffff1614806106e057506106df816106da610dd9565b610bfd565b5b61071f576040517f08c379a000000000000000000000000000000000000000000000000000000000815260040161071690613064565b60405180910390fd5b6107298383610de1565b505050565b6000600880549050905090565b61074c610746610dd9565b82610e9a565b61078b576040517f08c379a0000000000000000000000000000000000000000000000000000000008152600401610782906130f6565b60405180910390fd5b610796838383610f2f565b505050565b60006107a6836109b3565b82106107e7576040517f08c379a00000000000000000000000000000000000000000000000000000000081526004016107de90613188565b60405180910390fd5b600660008473ffffffffffffffffffffffffffffffffffffffff1673ffffffffffffffffffffffffffffffffffffffff168152602001908152602001600020600083815260200190815260200160002054905092915050565b61085b83838360405180602001604052806000815250610b50565b505050565b61087161086b610dd9565b82610e9a565b6108b0576040517f08c379a00000000000000000000000000000000000000000000000000000000081526004016108a7906130f6565b60405180910390fd5b6108b981611228565b50565b60006108c661072e565b8210610907576040517f08c379a00000000000000000000000000000000000000000000000000000000081526004016108fe9061321a565b60405180910390fd5b6008828154811061091b5761091a61323a565b5b90600052602060002001549050919050565b600080610939836112aa565b9050600073ffffffffffffffffffffffffffffffffffffffff168173ffffffffffffffffffffffffffffffffffffffff16036109aa576040517f08c379a00000000000000000000000000000000000000000000000000000000081526004016109a1906132b5565b60405180910390fd5b80915050919050565b60008073ffffffffffffffffffffffffffffffffffffffff168273ffffffffffffffffffffffffffffffffffffffff1603610a23576040517f08c379a0000000000000000000000000000000000000000000000000000000008152600401610a1a90613347565b60405180910390fd5b600360008373ffffffffffffffffffffffffffffffffffffffff1673ffffffffffffffffffffffffffffffffffffffff168152602001908152602001600020549050919050565b610a726112e7565b610a7c6000611365565b565b6000600b60009054906101000a900473ffffffffffffffffffffffffffffffffffffffff16905090565b606060018054610ab790612f2f565b80601f0160208091040260200160405190810160405280929190818152602001828054610ae390612f2f565b8015610b305780601f10610b0557610100808354040283529160200191610b30565b820191906000526020600020905b815481529060010190602001808311610b1357829003601f168201915b5050505050905090565b610b4c610b45610dd9565b838361142b565b5050565b610b61610b5b610dd9565b83610e9a565b610ba0576040517f08c379a0000000000000000000000000000000000000000000000000000000008152600401610b97906130f6565b60405180910390fd5b610bac84848484611597565b50505050565b6060610bbd826115f3565b9050919050565b610bcc6112e7565b6000610bd8600c611705565b9050610be4600c611713565b610bee8382611729565b610bf88183611747565b505050565b6000600560008473ffffffffffffffffffffffffffffffffffffffff1673ffffffffffffffffffffffffffffffffffffffff16815260200190815260200160002060008373ffffffffffffffffffffffffffffffffffffffff1673ffffffffffffffffffffffffffffffffffffffff16815260200190815260200160002060009054906101000a900460ff16905092915050565b610c996112e7565b600073ffffffffffffffffffffffffffffffffffffffff168173ffffffffffffffffffffffffffffffffffffffff1603610d08576040517f08c379a0000000000000000000000000000000000000000000000000000000008152600401610cff906133d9565b60405180910390fd5b610d1181611365565b50565b60007f780e9d63000000000000000000000000000000000000000000000000000000007bffffffffffffffffffffffffffffffffffffffffffffffffffffffff1916827bffffffffffffffffffffffffffffffffffffffffffffffffffffffff19161480610d875750610d86826117b4565b5b9050919050565b610d9781611896565b610dd6576040517f08c379a0000000000000000000000000000000000000000000000000000000008152600401610dcd906132b5565b60405180910390fd5b50565b600033905090565b816004600083815260200190815260200160002060006101000a81548173ffffffffffffffffffffffffffffffffffffffff021916908373ffffffffffffffffffffffffffffffffffffffff160217905550808273ffffffffffffffffffffffffffffffffffffffff16610e548361092d565b73ffffffffffffffffffffffffffffffffffffffff167f8c5be1e5ebec7d5bd14f71427d1e84f3dd0314c0f7b2291e5b200ac8c7c3b92560405160405180910390a45050565b600080610ea68361092d565b90508073ffffffffffffffffffffffffffffffffffffffff168473ffffffffffffffffffffffffffffffffffffffff161480610ee85750610ee78185610bfd565b5b80610f2657508373ffffffffffffffffffffffffffffffffffffffff16610f0e846105d1565b73ffffffffffffffffffffffffffffffffffffffff16145b91505092915050565b8273ffffffffffffffffffffffffffffffffffffffff16610f4f8261092d565b73ffffffffffffffffffffffffffffffffffffffff1614610fa5576040517f08c379a0000000000000000000000000000000000000000000000000000000008152600401610f9c9061346b565b60405180910390fd5b600073ffffffffffffffffffffffffffffffffffffffff168273ffffffffffffffffffffffffffffffffffffffff1603611014576040517f08c379a000000000000000000000000000000000000000000000000000000000815260040161100b906134fd565b60405180910390fd5b61102183838360016118d7565b8273ffffffffffffffffffffffffffffffffffffffff166110418261092d565b73ffffffffffffffffffffffffffffffffffffffff1614611097576040517f08c379a000000000000000000000000000000000000000000000000000000000815260040161108e9061346b565b60405180910390fd5b6004600082815260200190815260200160002060006101000a81549073ffffffffffffffffffffffffffffffffffffffff02191690556001600360008573ffffffffffffffffffffffffffffffffffffffff1673ffffffffffffffffffffffffffffffffffffffff168152602001908152602001600020600082825403925050819055506001600360008473ffffffffffffffffffffffffffffffffffffffff1673ffffffffffffffffffffffffffffffffffffffff16815260200190815260200160002060008282540192505081905550816002600083815260200190815260200160002060006101000a81548173ffffffffffffffffffffffffffffffffffffffff021916908373ffffffffffffffffffffffffffffffffffffffff160217905550808273ffffffffffffffffffffffffffffffffffffffff168473ffffffffffffffffffffffffffffffffffffffff167fddf252ad1be2c89b69c2b068fc378daa952ba7f163c4a11628f55a4df523b3ef60405160405180910390a4611223838383600161198f565b505050565b3373ffffffffffffffffffffffffffffffffffffffff166112488261092d565b73ffffffffffffffffffffffffffffffffffffffff161461129e576040517f08c379a00000000000000000000000000000000000000000000000000000000081526004016112959061358f565b60405180910390fd5b6112a781611995565b50565b60006002600083815260200190815260200160002060009054906101000a900473ffffffffffffffffffffffffffffffffffffffff169050919050565b6112ef610dd9565b73ffffffffffffffffffffffffffffffffffffffff1661130d610a7e565b73ffffffffffffffffffffffffffffffffffffffff1614611363576040517f08c379a000000000000000000000000000000000000000000000000000000000815260040161135a906135fb565b60405180910390fd5b565b6000600b60009054906101000a900473ffffffffffffffffffffffffffffffffffffffff16905081600b60006101000a81548173ffffffffffffffffffffffffffffffffffffffff021916908373ffffffffffffffffffffffffffffffffffffffff1602179055508173ffffffffffffffffffffffffffffffffffffffff168173ffffffffffffffffffffffffffffffffffffffff167f8be0079c531659141344cd1fd0a4f28419497f9722a3daafe3b4186f6b6457e060405160405180910390a35050565b8173ffffffffffffffffffffffffffffffffffffffff168373ffffffffffffffffffffffffffffffffffffffff1603611499576040517f08c379a000000000000000000000000000000000000000000000000000000000815260040161149090613667565b60405180910390fd5b80600560008573ffffffffffffffffffffffffffffffffffffffff1673ffffffffffffffffffffffffffffffffffffffff16815260200190815260200160002060008473ffffffffffffffffffffffffffffffffffffffff1673ffffffffffffffffffffffffffffffffffffffff16815260200190815260200160002060006101000a81548160ff0219169083151502179055508173ffffffffffffffffffffffffffffffffffffffff168373ffffffffffffffffffffffffffffffffffffffff167f17307eab39ab6107e8899845ad3d59bd9653f200f220920489ca2b5937696c318360405161158a91906128fd565b60405180910390a3505050565b6115a2848484610f2f565b6115ae848484846119e8565b6115ed576040517f08c379a00000000000000000000000000000000000000000000000000000000081526004016115e4906136f9565b60405180910390fd5b50505050565b60606115fe82610d8e565b6000600a6000848152602001908152602001600020805461161e90612f2f565b80601f016020809104026020016040519081016040528092919081815260200182805461164a90612f2f565b80156116975780601f1061166c57610100808354040283529160200191611697565b820191906000526020600020905b81548152906001019060200180831161167a57829003601f168201915b5050505050905060006116a8611b6f565b905060008151036116bd578192505050611700565b6000825111156116f25780826040516020016116da929190613755565b60405160208183030381529060405292505050611700565b6116fb84611b86565b925050505b919050565b600081600001549050919050565b6001816000016000828254019250508190555050565b611743828260405180602001604052806000815250611bee565b5050565b61175082611896565b61178f576040517f08c379a0000000000000000000000000000000000000000000000000000000008152600401611786906137eb565b60405180910390fd5b80600a600084815260200190815260200160002090816117af91906139b7565b505050565b60007f80ac58cd000000000000000000000000000000000000000000000000000000007bffffffffffffffffffffffffffffffffffffffffffffffffffffffff1916827bffffffffffffffffffffffffffffffffffffffffffffffffffffffff1916148061187f57507f5b5e139f000000000000000000000000000000000000000000000000000000007bffffffffffffffffffffffffffffffffffffffffffffffffffffffff1916827bffffffffffffffffffffffffffffffffffffffffffffffffffffffff1916145b8061188f575061188e82611c49565b5b9050919050565b60008073ffffffffffffffffffffffffffffffffffffffff166118b8836112aa565b73ffffffffffffffffffffffffffffffffffffffff1614159050919050565b600073ffffffffffffffffffffffffffffffffffffffff168473ffffffffffffffffffffffffffffffffffffffff16148061193e5750600073ffffffffffffffffffffffffffffffffffffffff168373ffffffffffffffffffffffffffffffffffffffff16145b61197d576040517f08c379a000000000000000000000000000000000000000000000000000000000815260040161197490613b21565b60405180910390fd5b61198984848484611cb3565b50505050565b50505050565b61199e81611e11565b6000600a600083815260200190815260200160002080546119be90612f2f565b9050146119e557600a600082815260200190815260200160002060006119e491906127ec565b5b50565b6000611a098473ffffffffffffffffffffffffffffffffffffffff16611f5f565b15611b62578373ffffffffffffffffffffffffffffffffffffffff1663150b7a02611a32610dd9565b8786866040518563ffffffff1660e01b8152600401611a549493929190613b96565b6020604051808303816000875af1925050508015611a9057506040513d601f19601f82011682018060405250810190611a8d9190613bf7565b60015b611b12573d8060008114611ac0576040519150601f19603f3d011682016040523d82523d6000602084013e611ac5565b606091505b506000815103611b0a576040517f08c379a0000000000000000000000000000000000000000000000000000000008152600401611b01906136f9565b60405180910390fd5b805181602001fd5b63150b7a0260e01b7bffffffffffffffffffffffffffffffffffffffffffffffffffffffff1916817bffffffffffffffffffffffffffffffffffffffffffffffffffffffff191614915050611b67565b600190505b949350505050565b606060405180602001604052806000815250905090565b6060611b9182610d8e565b6000611b9b611b6f565b90506000815111611bbb5760405180602001604052806000815250611be6565b80611bc584611f82565b604051602001611bd6929190613755565b6040516020818303038152906040525b915050919050565b611bf88383612050565b611c0560008484846119e8565b611c44576040517f08c379a0000000000000000000000000000000000000000000000000000000008152600401611c3b906136f9565b60405180910390fd5b505050565b60007f01ffc9a7000000000000000000000000000000000000000000000000000000007bffffffffffffffffffffffffffffffffffffffffffffffffffffffff1916827bffffffffffffffffffffffffffffffffffffffffffffffffffffffff1916149050919050565b611cbf8484848461226d565b6001811115611d03576040517f08c379a0000000000000000000000000000000000000000000000000000000008152600401611cfa90613c96565b60405180910390fd5b6000829050600073ffffffffffffffffffffffffffffffffffffffff168573ffffffffffffffffffffffffffffffffffffffff1603611d4a57611d4581612393565b611d89565b8373ffffffffffffffffffffffffffffffffffffffff168573ffffffffffffffffffffffffffffffffffffffff1614611d8857611d8785826123dc565b5b5b600073ffffffffffffffffffffffffffffffffffffffff168473ffffffffffffffffffffffffffffffffffffffff1603611dcb57611dc681612549565b611e0a565b8473ffffffffffffffffffffffffffffffffffffffff168473ffffffffffffffffffffffffffffffffffffffff1614611e0957611e08848261261a565b5b5b5050505050565b6000611e1c8261092d565b9050611e2c8160008460016118d7565b611e358261092d565b90506004600083815260200190815260200160002060006101000a81549073ffffffffffffffffffffffffffffffffffffffff02191690556001600360008373ffffffffffffffffffffffffffffffffffffffff1673ffffffffffffffffffffffffffffffffffffffff168152602001908152602001600020600082825403925050819055506002600083815260200190815260200160002060006101000a81549073ffffffffffffffffffffffffffffffffffffffff021916905581600073ffffffffffffffffffffffffffffffffffffffff168273ffffffffffffffffffffffffffffffffffffffff167fddf252ad1be2c89b69c2b068fc378daa952ba7f163c4a11628f55a4df523b3ef60405160405180910390a4611f5b81600084600161198f565b5050565b6000808273ffffffffffffffffffffffffffffffffffffffff163b119050919050565b606060006001611f9184612699565b01905060008167ffffffffffffffff811115611fb057611faf612c15565b5b6040519080825280601f01601f191660200182016040528015611fe25781602001600182028036833780820191505090505b509050600082602001820190505b600115612045578080600190039150507f3031323334353637383961626364656600000000000000000000000000000000600a86061a8153600a858161203957612038613cb6565b5b04945060008503611ff0575b819350505050919050565b600073ffffffffffffffffffffffffffffffffffffffff168273ffffffffffffffffffffffffffffffffffffffff16036120bf576040517f08c379a00000000000000000000000000000000000000000000000000000000081526004016120b690613d31565b60405180910390fd5b6120c881611896565b15612108576040517f08c379a00000000000000000000000000000000000000000000000000000000081526004016120ff90613d9d565b60405180910390fd5b6121166000838360016118d7565b61211f81611896565b1561215f576040517f08c379a000000000000000000000000000000000000000000000000000000000815260040161215690613d9d565b60405180910390fd5b6001600360008473ffffffffffffffffffffffffffffffffffffffff1673ffffffffffffffffffffffffffffffffffffffff16815260200190815260200160002060008282540192505081905550816002600083815260200190815260200160002060006101000a81548173ffffffffffffffffffffffffffffffffffffffff021916908373ffffffffffffffffffffffffffffffffffffffff160217905550808273ffffffffffffffffffffffffffffffffffffffff16600073ffffffffffffffffffffffffffffffffffffffff167fddf252ad1be2c89b69c2b068fc378daa952ba7f163c4a11628f55a4df523b3ef60405160405180910390a461226960008383600161198f565b5050565b600181111561238d57600073ffffffffffffffffffffffffffffffffffffffff168473ffffffffffffffffffffffffffffffffffffffff16146123015780600360008673ffffffffffffffffffffffffffffffffffffffff1673ffffffffffffffffffffffffffffffffffffffff16815260200190815260200160002060008282546122f99190613dec565b925050819055505b600073ffffffffffffffffffffffffffffffffffffffff168373ffffffffffffffffffffffffffffffffffffffff161461238c5780600360008573ffffffffffffffffffffffffffffffffffffffff1673ffffffffffffffffffffffffffffffffffffffff16815260200190815260200160002060008282546123849190613e20565b925050819055505b5b50505050565b6008805490506009600083815260200190815260200160002081905550600881908060018154018082558091505060019003906000526020600020016000909190919091505550565b600060016123e9846109b3565b6123f39190613dec565b90506000600760008481526020019081526020016000205490508181146124d8576000600660008673ffffffffffffffffffffffffffffffffffffffff1673ffffffffffffffffffffffffffffffffffffffff168152602001908152602001600020600084815260200190815260200160002054905080600660008773ffffffffffffffffffffffffffffffffffffffff1673ffffffffffffffffffffffffffffffffffffffff168152602001908152602001600020600084815260200190815260200160002081905550816007600083815260200190815260200160002081905550505b6007600084815260200190815260200160002060009055600660008573ffffffffffffffffffffffffffffffffffffffff1673ffffffffffffffffffffffffffffffffffffffff16815260200190815260200160002060008381526020019081526020016000206000905550505050565b6000600160088054905061255d9190613dec565b905060006009600084815260200190815260200160002054905060006008838154811061258d5761258c61323a565b5b9060005260206000200154905080600883815481106125af576125ae61323a565b5b9060005260206000200181905550816009600083815260200190815260200160002081905550600960008581526020019081526020016000206000905560088054806125fe576125fd613e54565b5b6001900381819060005260206000200160009055905550505050565b6000612625836109b3565b905081600660008573ffffffffffffffffffffffffffffffffffffffff1673ffffffffffffffffffffffffffffffffffffffff168152602001908152602001600020600083815260200190815260200160002081905550806007600084815260200190815260200160002081905550505050565b600080600090507a184f03e93ff9f4daa797ed6e38ed64bf6a1f01000000000000000083106126f7577a184f03e93ff9f4daa797ed6e38ed64bf6a1f01000000000000000083816126ed576126ec613cb6565b5b0492506040810190505b6d04ee2d6d415b85acef81000000008310612734576d04ee2d6d415b85acef8100000000838161272a57612729613cb6565b5b0492506020810190505b662386f26fc10000831061276357662386f26fc10000838161275957612758613cb6565b5b0492506010810190505b6305f5e100831061278c576305f5e100838161278257612781613cb6565b5b0492506008810190505b61271083106127b15761271083816127a7576127a6613cb6565b5b0492506004810190505b606483106127d457606483816127ca576127c9613cb6565b5b0492506002810190505b600a83106127e3576001810190505b80915050919050565b5080546127f890612f2f565b6000825580601f1061280a5750612829565b601f016020900490600052602060002090810190612828919061282c565b5b50565b5b8082111561284557600081600090555060010161282d565b5090565b6000604051905090565b600080fd5b600080fd5b60007fffffffff0000000000000000000000000000000000000000000000000000000082169050919050565b6128928161285d565b811461289d57600080fd5b50565b6000813590506128af81612889565b92915050565b6000602082840312156128cb576128ca612853565b5b60006128d9848285016128a0565b91505092915050565b60008115159050919050565b6128f7816128e2565b82525050565b600060208201905061291260008301846128ee565b92915050565b600081519050919050565b600082825260208201905092915050565b60005b83811015612952578082015181840152602081019050612937565b60008484015250505050565b6000601f19601f8301169050919050565b600061297a82612918565b6129848185612923565b9350612994818560208601612934565b61299d8161295e565b840191505092915050565b600060208201905081810360008301526129c2818461296f565b905092915050565b6000819050919050565b6129dd816129ca565b81146129e857600080fd5b50565b6000813590506129fa816129d4565b92915050565b600060208284031215612a1657612a15612853565b5b6000612a24848285016129eb565b91505092915050565b600073ffffffffffffffffffffffffffffffffffffffff82169050919050565b6000612a5882612a2d565b9050919050565b612a6881612a4d565b82525050565b6000602082019050612a836000830184612a5f565b92915050565b612a9281612a4d565b8114612a9d57600080fd5b50565b600081359050612aaf81612a89565b92915050565b60008060408385031215612acc57612acb612853565b5b6000612ada85828601612aa0565b9250506020612aeb858286016129eb565b9150509250929050565b612afe816129ca565b82525050565b6000602082019050612b196000830184612af5565b92915050565b600080600060608486031215612b3857612b37612853565b5b6000612b4686828701612aa0565b9350506020612b5786828701612aa0565b9250506040612b68868287016129eb565b9150509250925092565b600060208284031215612b8857612b87612853565b5b6000612b9684828501612aa0565b91505092915050565b612ba8816128e2565b8114612bb357600080fd5b50565b600081359050612bc581612b9f565b92915050565b60008060408385031215612be257612be1612853565b5b6000612bf085828601612aa0565b9250506020612c0185828601612bb6565b9150509250929050565b600080fd5b600080fd5b7f4e487b7100000000000000000000000000000000000000000000000000000000600052604160045260246000fd5b612c4d8261295e565b810181811067ffffffffffffffff82111715612c6c57612c6b612c15565b5b80604052505050565b6000612c7f612849565b9050612c8b8282612c44565b919050565b600067ffffffffffffffff821115612cab57612caa612c15565b5b612cb48261295e565b9050602081019050919050565b82818337600083830152505050565b6000612ce3612cde84612c90565b612c75565b905082815260208101848484011115612cff57612cfe612c10565b5b612d0a848285612cc1565b509392505050565b600082601f830112612d2757612d26612c0b565b5b8135612d37848260208601612cd0565b91505092915050565b60008060008060808587031215612d5a57612d59612853565b5b6000612d6887828801612aa0565b9450506020612d7987828801612aa0565b9350506040612d8a878288016129eb565b925050606085013567ffffffffffffffff811115612dab57612daa612858565b5b612db787828801612d12565b91505092959194509250565b600067ffffffffffffffff821115612dde57612ddd612c15565b5b612de78261295e565b9050602081019050919050565b6000612e07612e0284612dc3565b612c75565b905082815260208101848484011115612e2357612e22612c10565b5b612e2e848285612cc1565b509392505050565b600082601f830112612e4b57612e4a612c0b565b5b8135612e5b848260208601612df4565b91505092915050565b60008060408385031215612e7b57612e7a612853565b5b6000612e8985828601612aa0565b925050602083013567ffffffffffffffff811115612eaa57612ea9612858565b5b612eb685828601612e36565b9150509250929050565b60008060408385031215612ed757612ed6612853565b5b6000612ee585828601612aa0565b9250506020612ef685828601612aa0565b9150509250929050565b7f4e487b7100000000000000000000000000000000000000000000000000000000600052602260045260246000fd5b60006002820490506001821680612f4757607f821691505b602082108103612f5a57612f59612f00565b5b50919050565b7f4552433732313a20617070726f76616c20746f2063757272656e74206f776e6560008201527f7200000000000000000000000000000000000000000000000000000000000000602082015250565b6000612fbc602183612923565b9150612fc782612f60565b604082019050919050565b60006020820190508181036000830152612feb81612faf565b9050919050565b7f4552433732313a20617070726f76652063616c6c6572206973206e6f7420746f60008201527f6b656e206f776e6572206f7220617070726f76656420666f7220616c6c000000602082015250565b600061304e603d83612923565b915061305982612ff2565b604082019050919050565b6000602082019050818103600083015261307d81613041565b9050919050565b7f4552433732313a2063616c6c6572206973206e6f7420746f6b656e206f776e6560008201527f72206f7220617070726f76656400000000000000000000000000000000000000602082015250565b60006130e0602d83612923565b91506130eb82613084565b604082019050919050565b6000602082019050818103600083015261310f816130d3565b9050919050565b7f455243373231456e756d657261626c653a206f776e657220696e646578206f7560008201527f74206f6620626f756e6473000000000000000000000000000000000000000000602082015250565b6000613172602b83612923565b915061317d82613116565b604082019050919050565b600060208201905081810360008301526131a181613165565b9050919050565b7f455243373231456e756d657261626c653a20676c6f62616c20696e646578206f60008201527f7574206f6620626f756e64730000000000000000000000000000000000000000602082015250565b6000613204602c83612923565b915061320f826131a8565b604082019050919050565b60006020820190508181036000830152613233816131f7565b9050919050565b7f4e487b7100000000000000000000000000000000000000000000000000000000600052603260045260246000fd5b7f4552433732313a20696e76616c696420746f6b656e2049440000000000000000600082015250565b600061329f601883612923565b91506132aa82613269565b602082019050919050565b600060208201905081810360008301526132ce81613292565b9050919050565b7f4552433732313a2061646472657373207a65726f206973206e6f74206120766160008201527f6c6964206f776e65720000000000000000000000000000000000000000000000602082015250565b6000613331602983612923565b915061333c826132d5565b604082019050919050565b6000602082019050818103600083015261336081613324565b9050919050565b7f4f776e61626c653a206e6577206f776e657220697320746865207a65726f206160008201527f6464726573730000000000000000000000000000000000000000000000000000602082015250565b60006133c3602683612923565b91506133ce82613367565b604082019050919050565b600060208201905081810360008301526133f2816133b6565b9050919050565b7f4552433732313a207472616e736665722066726f6d20696e636f72726563742060008201527f6f776e6572000000000000000000000000000000000000000000000000000000602082015250565b6000613455602583612923565b9150613460826133f9565b604082019050919050565b6000602082019050818103600083015261348481613448565b9050919050565b7f4552433732313a207472616e7366657220746f20746865207a65726f2061646460008201527f7265737300000000000000000000000000000000000000000000000000000000602082015250565b60006134e7602483612923565b91506134f28261348b565b604082019050919050565b60006020820190508181036000830152613516816134da565b9050919050565b7f4f6e6c7920746865206f776e6572206f662074686520746f6b656e2063616e2060008201527f6275726e2069742e000000000000000000000000000000000000000000000000602082015250565b6000613579602883612923565b91506135848261351d565b604082019050919050565b600060208201905081810360008301526135a88161356c565b9050919050565b7f4f776e61626c653a2063616c6c6572206973206e6f7420746865206f776e6572600082015250565b60006135e5602083612923565b91506135f0826135af565b602082019050919050565b60006020820190508181036000830152613614816135d8565b9050919050565b7f4552433732313a20617070726f766520746f2063616c6c657200000000000000600082015250565b6000613651601983612923565b915061365c8261361b565b602082019050919050565b6000602082019050818103600083015261368081613644565b9050919050565b7f4552433732313a207472616e7366657220746f206e6f6e20455243373231526560008201527f63656976657220696d706c656d656e7465720000000000000000000000000000602082015250565b60006136e3603283612923565b91506136ee82613687565b604082019050919050565b60006020820190508181036000830152613712816136d6565b9050919050565b600081905092915050565b600061372f82612918565b6137398185613719565b9350613749818560208601612934565b80840191505092915050565b60006137618285613724565b915061376d8284613724565b91508190509392505050565b7f45524337323155524953746f726167653a2055524920736574206f66206e6f6e60008201527f6578697374656e7420746f6b656e000000000000000000000000000000000000602082015250565b60006137d5602e83612923565b91506137e082613779565b604082019050919050565b60006020820190508181036000830152613804816137c8565b9050919050565b60008190508160005260206000209050919050565b60006020601f8301049050919050565b600082821b905092915050565b60006008830261386d7fffffffffffffffffffffffffffffffffffffffffffffffffffffffffffffffff82613830565b6138778683613830565b95508019841693508086168417925050509392505050565b6000819050919050565b60006138b46138af6138aa846129ca565b61388f565b6129ca565b9050919050565b6000819050919050565b6138ce83613899565b6138e26138da826138bb565b84845461383d565b825550505050565b600090565b6138f76138ea565b6139028184846138c5565b505050565b5b818110156139265761391b6000826138ef565b600181019050613908565b5050565b601f82111561396b5761393c8161380b565b61394584613820565b81016020851015613954578190505b61396861396085613820565b830182613907565b50505b505050565b600082821c905092915050565b600061398e60001984600802613970565b1980831691505092915050565b60006139a7838361397d565b9150826002028217905092915050565b6139c082612918565b67ffffffffffffffff8111156139d9576139d8612c15565b5b6139e38254612f2f565b6139ee82828561392a565b600060209050601f831160018114613a215760008415613a0f578287015190505b613a19858261399b565b865550613a81565b601f198416613a2f8661380b565b60005b82811015613a5757848901518255600182019150602085019450602081019050613a32565b86831015613a745784890151613a70601f89168261397d565b8355505b6001600288020188555050505b505050505050565b7f54686973206120536f756c626f756e6420746f6b656e2e2049742063616e6e6f60008201527f74206265207472616e736665727265642e2049742063616e206f6e6c7920626560208201527f206275726e65642062792074686520746f6b656e206f776e65722e0000000000604082015250565b6000613b0b605b83612923565b9150613b1682613a89565b606082019050919050565b60006020820190508181036000830152613b3a81613afe565b9050919050565b600081519050919050565b600082825260208201905092915050565b6000613b6882613b41565b613b728185613b4c565b9350613b82818560208601612934565b613b8b8161295e565b840191505092915050565b6000608082019050613bab6000830187612a5f565b613bb86020830186612a5f565b613bc56040830185612af5565b8181036060830152613bd78184613b5d565b905095945050505050565b600081519050613bf181612889565b92915050565b600060208284031215613c0d57613c0c612853565b5b6000613c1b84828501613be2565b91505092915050565b7f455243373231456e756d657261626c653a20636f6e736563757469766520747260008201527f616e7366657273206e6f7420737570706f727465640000000000000000000000602082015250565b6000613c80603583612923565b9150613c8b82613c24565b604082019050919050565b60006020820190508181036000830152613caf81613c73565b9050919050565b7f4e487b7100000000000000000000000000000000000000000000000000000000600052601260045260246000fd5b7f4552433732313a206d696e7420746f20746865207a65726f2061646472657373600082015250565b6000613d1b602083612923565b9150613d2682613ce5565b602082019050919050565b60006020820190508181036000830152613d4a81613d0e565b9050919050565b7f4552433732313a20746f6b656e20616c7265616479206d696e74656400000000600082015250565b6000613d87601c83612923565b9150613d9282613d51565b602082019050919050565b60006020820190508181036000830152613db681613d7a565b9050919050565b7f4e487b7100000000000000000000000000000000000000000000000000000000600052601160045260246000fd5b6000613df7826129ca565b9150613e02836129ca565b9250828203905081811115613e1a57613e19613dbd565b5b92915050565b6000613e2b826129ca565b9150613e36836129ca565b9250828201905080821115613e4e57613e4d613dbd565b5b92915050565b7f4e487b7100000000000000000000000000000000000000000000000000000000600052603160045260246000fdfea26469706673582212206111452f7d8837acbd9cd2045dc59ce30f0ab98fa2043fa52c37aecaf5588cf064736f6c63430008110033",
  "linkReferences": {},
  "deployedLinkReferences": {}
}